{
  "contractName": "Exchange",
  "abi": [
    {
      "inputs": [
        {
          "internalType": "address",
          "name": "tokenAddressA",
          "type": "address"
        },
        {
          "internalType": "address",
          "name": "tokenAddressB",
          "type": "address"
        },
        {
          "internalType": "uint256",
          "name": "priceAB",
          "type": "uint256"
        }
      ],
      "stateMutability": "nonpayable",
      "type": "constructor"
    },
    {
      "anonymous": false,
      "inputs": [
        {
          "indexed": false,
          "internalType": "address",
          "name": "_user",
          "type": "address"
        },
        {
          "indexed": false,
          "internalType": "address",
          "name": "_token",
          "type": "address"
        },
        {
          "indexed": false,
          "internalType": "uint256",
          "name": "_amountSell",
          "type": "uint256"
        }
      ],
      "name": "ExchangeTokenEvent",
      "type": "event"
    },
    {
      "anonymous": false,
      "inputs": [
        {
          "indexed": true,
          "internalType": "address",
          "name": "previousOwner",
          "type": "address"
        },
        {
          "indexed": true,
          "internalType": "address",
          "name": "newOwner",
          "type": "address"
        }
      ],
      "name": "OwnershipTransferred",
      "type": "event"
    },
    {
      "inputs": [],
      "name": "addressTknA",
      "outputs": [
        {
          "internalType": "address",
          "name": "",
          "type": "address"
        }
      ],
      "stateMutability": "view",
      "type": "function"
    },
    {
      "inputs": [],
      "name": "addressTknB",
      "outputs": [
        {
          "internalType": "address",
          "name": "",
          "type": "address"
        }
      ],
      "stateMutability": "view",
      "type": "function"
    },
    {
      "inputs": [],
      "name": "amountWei",
      "outputs": [
        {
          "internalType": "uint256",
          "name": "",
          "type": "uint256"
        }
      ],
      "stateMutability": "view",
      "type": "function"
    },
    {
      "inputs": [],
      "name": "owner",
      "outputs": [
        {
          "internalType": "address",
          "name": "",
          "type": "address"
        }
      ],
      "stateMutability": "view",
      "type": "function"
    },
    {
      "inputs": [],
      "name": "price",
      "outputs": [
        {
          "internalType": "uint256",
          "name": "",
          "type": "uint256"
        }
      ],
      "stateMutability": "view",
      "type": "function"
    },
    {
      "inputs": [],
      "name": "renounceOwnership",
      "outputs": [],
      "stateMutability": "nonpayable",
      "type": "function"
    },
    {
      "inputs": [
        {
          "internalType": "address",
          "name": "newOwner",
          "type": "address"
        }
      ],
      "name": "transferOwnership",
      "outputs": [],
      "stateMutability": "nonpayable",
      "type": "function"
    },
    {
      "inputs": [
        {
          "internalType": "address",
          "name": "tokenAddress",
          "type": "address"
        },
        {
          "internalType": "uint256",
          "name": "amount",
          "type": "uint256"
        }
      ],
      "name": "exchange",
      "outputs": [
        {
          "internalType": "bool",
          "name": "success",
          "type": "bool"
        }
      ],
      "stateMutability": "nonpayable",
      "type": "function"
    },
    {
      "inputs": [
        {
          "internalType": "address",
          "name": "sellTkn",
          "type": "address"
        },
        {
          "internalType": "address",
          "name": "buyTkn",
          "type": "address"
        },
        {
          "internalType": "uint256",
          "name": "amountSellTkn",
          "type": "uint256"
        },
        {
          "internalType": "uint256",
          "name": "amountBuyTkn",
          "type": "uint256"
        }
      ],
      "name": "exchangeHelper",
      "outputs": [
        {
          "internalType": "bool",
          "name": "success",
          "type": "bool"
        }
      ],
      "stateMutability": "payable",
      "type": "function"
    },
    {
      "inputs": [
        {
          "internalType": "uint256",
          "name": "newPrice",
          "type": "uint256"
        }
      ],
      "name": "updatePrice",
      "outputs": [
        {
          "internalType": "bool",
          "name": "success",
          "type": "bool"
        }
      ],
      "stateMutability": "nonpayable",
      "type": "function"
    },
    {
      "inputs": [
        {
          "internalType": "address",
          "name": "tokenAddress",
          "type": "address"
        },
        {
          "internalType": "uint256",
          "name": "amount",
          "type": "uint256"
        }
      ],
      "name": "deposit",
      "outputs": [
        {
          "internalType": "bool",
          "name": "success",
          "type": "bool"
        }
      ],
      "stateMutability": "payable",
      "type": "function"
    }
  ],
  "bytecode": "0x60806040526012600155600154600a6200001a91906200028b565b60025567f0569b24ed2b80006003553480156200003657600080fd5b506040516200190d3803806200190d83398181016040528101906200005c9190620001d4565b60006200006e6200019e60201b60201c565b9050806000806101000a81548173ffffffffffffffffffffffffffffffffffffffff021916908373ffffffffffffffffffffffffffffffffffffffff1602179055508073ffffffffffffffffffffffffffffffffffffffff16600073ffffffffffffffffffffffffffffffffffffffff167f8be0079c531659141344cd1fd0a4f28419497f9722a3daafe3b4186f6b6457e060405160405180910390a35082600460006101000a81548173ffffffffffffffffffffffffffffffffffffffff021916908373ffffffffffffffffffffffffffffffffffffffff16021790555081600560006101000a81548173ffffffffffffffffffffffffffffffffffffffff021916908373ffffffffffffffffffffffffffffffffffffffff160217905550806003819055505050506200047b565b600033905090565b600081519050620001b78162000447565b92915050565b600081519050620001ce8162000461565b92915050565b600080600060608486031215620001f057620001ef62000435565b5b60006200020086828701620001a6565b93505060206200021386828701620001a6565b92505060406200022686828701620001bd565b9150509250925092565b6000808291508390505b600185111562000282578086048111156200025a576200025962000406565b5b60018516156200026a5780820291505b80810290506200027a856200043a565b94506200023a565b94509492505050565b60006200029882620003fc565b9150620002a583620003fc565b9250620002d47fffffffffffffffffffffffffffffffffffffffffffffffffffffffffffffffff8484620002dc565b905092915050565b600082620002ee5760019050620003c1565b81620002fe5760009050620003c1565b8160018114620003175760028114620003225762000358565b6001915050620003c1565b60ff84111562000337576200033662000406565b5b8360020a91508482111562000351576200035062000406565b5b50620003c1565b5060208310610133831016604e8410600b8410161715620003925782820a9050838111156200038c576200038b62000406565b5b620003c1565b620003a1848484600162000230565b92509050818404811115620003bb57620003ba62000406565b5b81810290505b9392505050565b6000620003d582620003dc565b9050919050565b600073ffffffffffffffffffffffffffffffffffffffff82169050919050565b6000819050919050565b7f4e487b7100000000000000000000000000000000000000000000000000000000600052601160045260246000fd5b600080fd5b60008160011c9050919050565b6200045281620003c8565b81146200045e57600080fd5b50565b6200046c81620003fc565b81146200047857600080fd5b50565b611482806200048b6000396000f3fe60806040526004361061009c5760003560e01c8063751030961161006457806375103096146101805780638d6cc56d146101ab5780638da5cb5b146101e8578063a035b1fe14610213578063b3bc62821461023e578063f2fde38b146102695761009c565b8063015a4dc8146100a1578063045d0389146100cc57806347e7ef24146101095780635522b0a614610139578063715018a614610169575b600080fd5b3480156100ad57600080fd5b506100b6610292565b6040516100c39190610fde565b60405180910390f35b3480156100d857600080fd5b506100f360048036038101906100ee9190610e18565b6102b8565b6040516101009190611059565b60405180910390f35b610123600480360381019061011e9190610e18565b6104db565b6040516101309190611059565b60405180910390f35b610153600480360381019061014e9190610db1565b6105f3565b6040516101609190611059565b60405180910390f35b34801561017557600080fd5b5061017e610919565b005b34801561018c57600080fd5b50610195610a53565b6040516101a29190610fde565b60405180910390f35b3480156101b757600080fd5b506101d260048036038101906101cd9190610e85565b610a79565b6040516101df9190611059565b60405180910390f35b3480156101f457600080fd5b506101fd610b4a565b60405161020a9190610fde565b60405180910390f35b34801561021f57600080fd5b50610228610b73565b6040516102359190611134565b60405180910390f35b34801561024a57600080fd5b50610253610b79565b6040516102609190611134565b60405180910390f35b34801561027557600080fd5b50610290600480360381019061028b9190610d84565b610b7f565b005b600460009054906101000a900473ffffffffffffffffffffffffffffffffffffffff1681565b6000600460009054906101000a900473ffffffffffffffffffffffffffffffffffffffff1673ffffffffffffffffffffffffffffffffffffffff168373ffffffffffffffffffffffffffffffffffffffff1614156103c5576000600254600354846103239190611191565b61032d9190611160565b905061037f600460009054906101000a900473ffffffffffffffffffffffffffffffffffffffff16600560009054906101000a900473ffffffffffffffffffffffffffffffffffffffff1685846105f3565b507ffe1e4a8e08883dfa3751dc60bb8a10081fc55ed2f9106ddb2fe9a1ce61b878da3385856040516103b393929190610ff9565b60405180910390a160019150506104d5565b600560009054906101000a900473ffffffffffffffffffffffffffffffffffffffff1673ffffffffffffffffffffffffffffffffffffffff168373ffffffffffffffffffffffffffffffffffffffff1614156104d05760006003546002548461042e9190611191565b6104389190611160565b905061048a600560009054906101000a900473ffffffffffffffffffffffffffffffffffffffff16600460009054906101000a900473ffffffffffffffffffffffffffffffffffffffff1685846105f3565b507ffe1e4a8e08883dfa3751dc60bb8a10081fc55ed2f9106ddb2fe9a1ce61b878da3385856040516104be93929190610ff9565b60405180910390a160019150506104d5565b600090505b92915050565b60006104e5610d28565b73ffffffffffffffffffffffffffffffffffffffff16610503610b4a565b73ffffffffffffffffffffffffffffffffffffffff1614610559576040517f08c379a0000000000000000000000000000000000000000000000000000000008152600401610550906110b4565b60405180910390fd5b8273ffffffffffffffffffffffffffffffffffffffff166323b872dd3330856040518463ffffffff1660e01b815260040161059693929190610ff9565b602060405180830381600087803b1580156105b057600080fd5b505af11580156105c4573d6000803e3d6000fd5b505050506040513d601f19601f820116820180604052508101906105e89190610e58565b506001905092915050565b6000808311610637576040517f08c379a000000000000000000000000000000000000000000000000000000000815260040161062e90611074565b60405180910390fd5b60008573ffffffffffffffffffffffffffffffffffffffff166370a08231336040518263ffffffff1660e01b81526004016106729190610fde565b60206040518083038186803b15801561068a57600080fd5b505afa15801561069e573d6000803e3d6000fd5b505050506040513d601f19601f820116820180604052508101906106c29190610eb2565b9050838111610706576040517f08c379a00000000000000000000000000000000000000000000000000000000081526004016106fd906110f4565b60405180910390fd5b60008573ffffffffffffffffffffffffffffffffffffffff166370a08231306040518263ffffffff1660e01b81526004016107419190610fde565b60206040518083038186803b15801561075957600080fd5b505afa15801561076d573d6000803e3d6000fd5b505050506040513d601f19601f820116820180604052508101906107919190610eb2565b90508381116107d5576040517f08c379a00000000000000000000000000000000000000000000000000000000081526004016107cc906110d4565b60405180910390fd5b8673ffffffffffffffffffffffffffffffffffffffff166323b872dd3330886040518463ffffffff1660e01b815260040161081293929190610ff9565b602060405180830381600087803b15801561082c57600080fd5b505af1158015610840573d6000803e3d6000fd5b505050506040513d601f19601f820116820180604052508101906108649190610e58565b61087157610870611233565b5b8573ffffffffffffffffffffffffffffffffffffffff1663a9059cbb33866040518363ffffffff1660e01b81526004016108ac929190611030565b602060405180830381600087803b1580156108c657600080fd5b505af11580156108da573d6000803e3d6000fd5b505050506040513d601f19601f820116820180604052508101906108fe9190610e58565b61090b5761090a611233565b5b600192505050949350505050565b610921610d28565b73ffffffffffffffffffffffffffffffffffffffff1661093f610b4a565b73ffffffffffffffffffffffffffffffffffffffff1614610995576040517f08c379a000000000000000000000000000000000000000000000000000000000815260040161098c906110b4565b60405180910390fd5b600073ffffffffffffffffffffffffffffffffffffffff1660008054906101000a900473ffffffffffffffffffffffffffffffffffffffff1673ffffffffffffffffffffffffffffffffffffffff167f8be0079c531659141344cd1fd0a4f28419497f9722a3daafe3b4186f6b6457e060405160405180910390a360008060006101000a81548173ffffffffffffffffffffffffffffffffffffffff021916908373ffffffffffffffffffffffffffffffffffffffff160217905550565b600560009054906101000a900473ffffffffffffffffffffffffffffffffffffffff1681565b6000610a83610d28565b73ffffffffffffffffffffffffffffffffffffffff16610aa1610b4a565b73ffffffffffffffffffffffffffffffffffffffff1614610af7576040517f08c379a0000000000000000000000000000000000000000000000000000000008152600401610aee906110b4565b60405180910390fd5b60008211610b3a576040517f08c379a0000000000000000000000000000000000000000000000000000000008152600401610b3190611114565b60405180910390fd5b8160038190555060019050919050565b60008060009054906101000a900473ffffffffffffffffffffffffffffffffffffffff16905090565b60035481565b60025481565b610b87610d28565b73ffffffffffffffffffffffffffffffffffffffff16610ba5610b4a565b73ffffffffffffffffffffffffffffffffffffffff1614610bfb576040517f08c379a0000000000000000000000000000000000000000000000000000000008152600401610bf2906110b4565b60405180910390fd5b600073ffffffffffffffffffffffffffffffffffffffff168173ffffffffffffffffffffffffffffffffffffffff161415610c6b576040517f08c379a0000000000000000000000000000000000000000000000000000000008152600401610c6290611094565b60405180910390fd5b8073ffffffffffffffffffffffffffffffffffffffff1660008054906101000a900473ffffffffffffffffffffffffffffffffffffffff1673ffffffffffffffffffffffffffffffffffffffff167f8be0079c531659141344cd1fd0a4f28419497f9722a3daafe3b4186f6b6457e060405160405180910390a3806000806101000a81548173ffffffffffffffffffffffffffffffffffffffff021916908373ffffffffffffffffffffffffffffffffffffffff16021790555050565b600033905090565b600081359050610d3f81611407565b92915050565b600081519050610d548161141e565b92915050565b600081359050610d6981611435565b92915050565b600081519050610d7e81611435565b92915050565b600060208284031215610d9a57610d996112c0565b5b6000610da884828501610d30565b91505092915050565b60008060008060808587031215610dcb57610dca6112c0565b5b6000610dd987828801610d30565b9450506020610dea87828801610d30565b9350506040610dfb87828801610d5a565b9250506060610e0c87828801610d5a565b91505092959194509250565b60008060408385031215610e2f57610e2e6112c0565b5b6000610e3d85828601610d30565b9250506020610e4e85828601610d5a565b9150509250929050565b600060208284031215610e6e57610e6d6112c0565b5b6000610e7c84828501610d45565b91505092915050565b600060208284031215610e9b57610e9a6112c0565b5b6000610ea984828501610d5a565b91505092915050565b600060208284031215610ec857610ec76112c0565b5b6000610ed684828501610d6f565b91505092915050565b610ee8816111eb565b82525050565b610ef7816111fd565b82525050565b6000610f0a60268361114f565b9150610f15826112c5565b604082019050919050565b6000610f2d60268361114f565b9150610f3882611314565b604082019050919050565b6000610f5060208361114f565b9150610f5b82611363565b602082019050919050565b6000610f7360198361114f565b9150610f7e8261138c565b602082019050919050565b6000610f9660158361114f565b9150610fa1826113b5565b602082019050919050565b6000610fb960208361114f565b9150610fc4826113de565b602082019050919050565b610fd881611229565b82525050565b6000602082019050610ff36000830184610edf565b92915050565b600060608201905061100e6000830186610edf565b61101b6020830185610edf565b6110286040830184610fcf565b949350505050565b60006040820190506110456000830185610edf565b6110526020830184610fcf565b9392505050565b600060208201905061106e6000830184610eee565b92915050565b6000602082019050818103600083015261108d81610efd565b9050919050565b600060208201905081810360008301526110ad81610f20565b9050919050565b600060208201905081810360008301526110cd81610f43565b9050919050565b600060208201905081810360008301526110ed81610f66565b9050919050565b6000602082019050818103600083015261110d81610f89565b9050919050565b6000602082019050818103600083015261112d81610fac565b9050919050565b60006020820190506111496000830184610fcf565b92915050565b600082825260208201905092915050565b600061116b82611229565b915061117683611229565b92508261118657611185611291565b5b828204905092915050565b600061119c82611229565b91506111a783611229565b9250817fffffffffffffffffffffffffffffffffffffffffffffffffffffffffffffffff04831182151516156111e0576111df611262565b5b828202905092915050565b60006111f682611209565b9050919050565b60008115159050919050565b600073ffffffffffffffffffffffffffffffffffffffff82169050919050565b6000819050919050565b7f4e487b7100000000000000000000000000000000000000000000000000000000600052600160045260246000fd5b7f4e487b7100000000000000000000000000000000000000000000000000000000600052601160045260246000fd5b7f4e487b7100000000000000000000000000000000000000000000000000000000600052601260045260246000fd5b600080fd5b7f416d6f756e74206f6620746f6b656e206e6565647320746f206265206f76657260008201527f207a65726f210000000000000000000000000000000000000000000000000000602082015250565b7f4f776e61626c653a206e6577206f776e657220697320746865207a65726f206160008201527f6464726573730000000000000000000000000000000000000000000000000000602082015250565b7f4f776e61626c653a2063616c6c6572206973206e6f7420746865206f776e6572600082015250565b7f436f6e74726163742062616c616e636520746f6f206c6f772100000000000000600082015250565b7f557365722062616c616e636520746f6f206c6f77210000000000000000000000600082015250565b7f4e6577207072696365206e6565647320746f206265206f766572207a65726f21600082015250565b611410816111eb565b811461141b57600080fd5b50565b611427816111fd565b811461143257600080fd5b50565b61143e81611229565b811461144957600080fd5b5056fea26469706673582212209e9f72c5ce15bca39053d656b61c98db92fca9a706fc7b0a9a2a35d33affb06464736f6c63430008060033",
  "immutableReferences": {},
  "source": "pragma solidity ^0.8.0;\n\nimport \"../node_modules/openzeppelin-solidity/contracts/access/Ownable.sol\";\nimport \"../node_modules/openzeppelin-solidity/contracts/token/ERC20/ERC20.sol\";\n\ncontract Exchange is Ownable {\n  uint256 private _decimal = 18;\n  uint public amountWei = 10**_decimal;\n  uint public price = 17318200000000000000;\n  address public addressTknA;\n  address public addressTknB;\n\n  event ExchangeTokenEvent(address _user, address _token, uint _amountSell);\n\n  constructor(address tokenAddressA, address tokenAddressB, uint priceAB) {\n    addressTknA = tokenAddressA;\n    addressTknB = tokenAddressB;\n    price = priceAB;\n  }\n  \n  function exchange(address tokenAddress, uint amount) public returns (bool success){\n    if (tokenAddress == addressTknA){\n        uint _amountBuyTkn = (amount * price) / amountWei;\n        exchangeHelper(addressTknA, addressTknB, amount, _amountBuyTkn);\n        emit ExchangeTokenEvent(msg.sender, tokenAddress, amount);\n        return true;\n    }else if(tokenAddress == addressTknB){\n        uint _amountBuyTkn = (amount * amountWei) / price ; \n        exchangeHelper(addressTknB, addressTknA, amount, _amountBuyTkn);\n        emit ExchangeTokenEvent(msg.sender, tokenAddress, amount);\n        return true;\n    }else{\n        return false;\n    }\n  }\n  \n    function exchangeHelper(address sellTkn, address buyTkn, uint amountSellTkn, uint amountBuyTkn) public payable returns (bool success){\n        // sell amount >0\n        require(amountSellTkn > 0, \"Amount of token needs to be over zero!\");\n        // enough sell amount on user balance\n        uint balanceSenderToken = ERC20(sellTkn).balanceOf(msg.sender);\n        require(balanceSenderToken > amountSellTkn, \"User balance too low!\");\n        // enough buy amount on contract balance\n        uint balanceBuyToken = ERC20(buyTkn).balanceOf(address(this));\n        require(balanceBuyToken > amountBuyTkn, \"Contract balance too low!\");\n        \n        // sell sellTkn\n        assert(ERC20(sellTkn).transferFrom(msg.sender, address(this), amountSellTkn));\n        // buy buyTkn\n        assert(ERC20(buyTkn).transfer(msg.sender, amountBuyTkn));\n          return true;\n  }\n\n  function updatePrice(uint newPrice) public onlyOwner returns (bool success) {\n    require(newPrice > 0, \"New price needs to be over zero!\");\n    price = newPrice;\n    return true;\n  }\n  \n    function deposit(address tokenAddress, uint amount) public onlyOwner payable returns (bool success) {\n      ERC20(tokenAddress).transferFrom(msg.sender, address(this), amount);\n      return true;\n  }\n}",
  "sourcePath": "/home/oski/Projects/RumbleFish/contracts/Exchange.sol",
  "compiler": {
    "name": "solc",
    "version": "0.8.6+commit.11564f7e.Emscripten.clang"
  },
  "schemaVersion": "3.4.1",
  "updatedAt": "2021-06-24T14:36:36.963Z",
  "devdoc": {
    "kind": "dev",
    "methods": {
      "owner()": {
        "details": "Returns the address of the current owner."
      },
      "renounceOwnership()": {
        "details": "Leaves the contract without owner. It will not be possible to call `onlyOwner` functions anymore. Can only be called by the current owner. NOTE: Renouncing ownership will leave the contract without an owner, thereby removing any functionality that is only available to the owner."
      },
      "transferOwnership(address)": {
        "details": "Transfers ownership of the contract to a new account (`newOwner`). Can only be called by the current owner."
      }
    },
    "version": 1
  },
  "userdoc": {
    "kind": "user",
    "methods": {},
    "version": 1
  }
}