{
  "contractName": "Exchange",
  "abi": [
    {
      "inputs": [
        {
          "internalType": "address",
          "name": "tokenAddressA",
          "type": "address"
        },
        {
          "internalType": "address",
          "name": "tokenAddressB",
          "type": "address"
        },
        {
          "internalType": "uint256",
          "name": "priceAB",
          "type": "uint256"
        }
      ],
      "stateMutability": "nonpayable",
      "type": "constructor"
    },
    {
      "anonymous": false,
      "inputs": [
        {
          "indexed": false,
          "internalType": "address",
          "name": "_user",
          "type": "address"
        },
        {
          "indexed": false,
          "internalType": "address",
          "name": "_token",
          "type": "address"
        },
        {
          "indexed": false,
          "internalType": "uint256",
          "name": "_amountSell",
          "type": "uint256"
        }
      ],
      "name": "ExchangeTokenEvent",
      "type": "event"
    },
    {
      "anonymous": false,
      "inputs": [
        {
          "indexed": true,
          "internalType": "address",
          "name": "previousOwner",
          "type": "address"
        },
        {
          "indexed": true,
          "internalType": "address",
          "name": "newOwner",
          "type": "address"
        }
      ],
      "name": "OwnershipTransferred",
      "type": "event"
    },
    {
      "inputs": [],
      "name": "addressTknA",
      "outputs": [
        {
          "internalType": "address",
          "name": "",
          "type": "address"
        }
      ],
      "stateMutability": "view",
      "type": "function"
    },
    {
      "inputs": [],
      "name": "addressTknB",
      "outputs": [
        {
          "internalType": "address",
          "name": "",
          "type": "address"
        }
      ],
      "stateMutability": "view",
      "type": "function"
    },
    {
      "inputs": [],
      "name": "owner",
      "outputs": [
        {
          "internalType": "address",
          "name": "",
          "type": "address"
        }
      ],
      "stateMutability": "view",
      "type": "function"
    },
    {
      "inputs": [],
      "name": "price",
      "outputs": [
        {
          "internalType": "uint256",
          "name": "",
          "type": "uint256"
        }
      ],
      "stateMutability": "view",
      "type": "function"
    },
    {
      "inputs": [],
      "name": "renounceOwnership",
      "outputs": [],
      "stateMutability": "nonpayable",
      "type": "function"
    },
    {
      "inputs": [
        {
          "internalType": "address",
          "name": "newOwner",
          "type": "address"
        }
      ],
      "name": "transferOwnership",
      "outputs": [],
      "stateMutability": "nonpayable",
      "type": "function"
    },
    {
      "inputs": [
        {
          "internalType": "address",
          "name": "tokenAddress",
          "type": "address"
        },
        {
          "internalType": "uint256",
          "name": "amount",
          "type": "uint256"
        }
      ],
      "name": "exchange",
      "outputs": [],
      "stateMutability": "nonpayable",
      "type": "function"
    },
    {
      "inputs": [
        {
          "internalType": "uint256",
          "name": "newPrice",
          "type": "uint256"
        }
      ],
      "name": "updatePrice",
      "outputs": [],
      "stateMutability": "nonpayable",
      "type": "function"
    },
    {
      "inputs": [
        {
          "internalType": "address",
          "name": "tokenAddress",
          "type": "address"
        },
        {
          "internalType": "uint256",
          "name": "amount",
          "type": "uint256"
        }
      ],
      "name": "deposit",
      "outputs": [],
      "stateMutability": "nonpayable",
      "type": "function"
    }
  ],
  "bytecode": "0x60806040526012600155600154600a6200001a919062000495565b600255600060035560016006553480156200003457600080fd5b5060405162001b0c38038062001b0c83398181016040528101906200005a9190620003ac565b60006200006c6200035f60201b60201c565b9050806000806101000a81548173ffffffffffffffffffffffffffffffffffffffff021916908373ffffffffffffffffffffffffffffffffffffffff1602179055508073ffffffffffffffffffffffffffffffffffffffff16600073ffffffffffffffffffffffffffffffffffffffff167f8be0079c531659141344cd1fd0a4f28419497f9722a3daafe3b4186f6b6457e060405160405180910390a35082600860006101000a81548173ffffffffffffffffffffffffffffffffffffffff021916908373ffffffffffffffffffffffffffffffffffffffff16021790555081600960006101000a81548173ffffffffffffffffffffffffffffffffffffffff021916908373ffffffffffffffffffffffffffffffffffffffff16021790555080600781905550600860009054906101000a900473ffffffffffffffffffffffffffffffffffffffff1673ffffffffffffffffffffffffffffffffffffffff1663313ce5676040518163ffffffff1660e01b815260040160206040518083038186803b158015620001fc57600080fd5b505afa15801562000211573d6000803e3d6000fd5b505050506040513d601f19601f8201168201806040525081019062000237919062000408565b60ff16600481905550600960009054906101000a900473ffffffffffffffffffffffffffffffffffffffff1673ffffffffffffffffffffffffffffffffffffffff1663313ce5676040518163ffffffff1660e01b815260040160206040518083038186803b158015620002a957600080fd5b505afa158015620002be573d6000803e3d6000fd5b505050506040513d601f19601f82011682018060405250810190620002e4919062000408565b60ff16600581905550600554600454111562000318576005546004546200030c9190620005d2565b6003819055506200033f565b60055460045410156200033e57600454600554620003379190620005d2565b6003819055505b5b600354600a62000350919062000495565b600681905550505050620006e7565b600033905090565b600081519050620003788162000699565b92915050565b6000815190506200038f81620006b3565b92915050565b600081519050620003a681620006cd565b92915050565b600080600060608486031215620003c857620003c762000687565b5b6000620003d88682870162000367565b9350506020620003eb8682870162000367565b9250506040620003fe868287016200037e565b9150509250925092565b60006020828403121562000421576200042062000687565b5b6000620004318482850162000395565b91505092915050565b6000808291508390505b60018511156200048c5780860481111562000464576200046362000658565b5b6001851615620004745780820291505b808102905062000484856200068c565b945062000444565b94509492505050565b6000620004a28262000641565b9150620004af8362000641565b9250620004de7fffffffffffffffffffffffffffffffffffffffffffffffffffffffffffffffff8484620004e6565b905092915050565b600082620004f85760019050620005cb565b81620005085760009050620005cb565b81600181146200052157600281146200052c5762000562565b6001915050620005cb565b60ff84111562000541576200054062000658565b5b8360020a9150848211156200055b576200055a62000658565b5b50620005cb565b5060208310610133831016604e8410600b84101617156200059c5782820a90508381111562000596576200059562000658565b5b620005cb565b620005ab84848460016200043a565b92509050818404811115620005c557620005c462000658565b5b81810290505b9392505050565b6000620005df8262000641565b9150620005ec8362000641565b92508282101562000602576200060162000658565b5b828203905092915050565b60006200061a8262000621565b9050919050565b600073ffffffffffffffffffffffffffffffffffffffff82169050919050565b6000819050919050565b600060ff82169050919050565b7f4e487b7100000000000000000000000000000000000000000000000000000000600052601160045260246000fd5b600080fd5b60008160011c9050919050565b620006a4816200060d565b8114620006b057600080fd5b50565b620006be8162000641565b8114620006ca57600080fd5b50565b620006d8816200064b565b8114620006e457600080fd5b50565b61141580620006f76000396000f3fe608060405234801561001057600080fd5b50600436106100935760003560e01c8063751030961161006657806375103096146100f85780638d6cc56d146101165780638da5cb5b14610132578063a035b1fe14610150578063f2fde38b1461016e57610093565b8063015a4dc814610098578063045d0389146100b657806347e7ef24146100d2578063715018a6146100ee575b600080fd5b6100a061018a565b6040516100ad9190610f1d565b60405180910390f35b6100d060048036038101906100cb9190610d43565b6101b0565b005b6100ec60048036038101906100e79190610d43565b61043b565b005b6100f661059a565b005b6101006106d4565b60405161010d9190610f1d565b60405180910390f35b610130600480360381019061012b9190610db0565b6106fa565b005b61013a6107c3565b6040516101479190610f1d565b60405180910390f35b6101586107ec565b6040516101659190611078565b60405180910390f35b61018860048036038101906101839190610d16565b6107f2565b005b600860009054906101000a900473ffffffffffffffffffffffffffffffffffffffff1681565b600860009054906101000a900473ffffffffffffffffffffffffffffffffffffffff1673ffffffffffffffffffffffffffffffffffffffff168273ffffffffffffffffffffffffffffffffffffffff1614156102f55760006002546007548361021991906110d5565b61022391906110a4565b90506005546004541115610246576006548161023f91906110a4565b9050610264565b6005546004541015610263576006548161026091906110d5565b90505b5b6102b4600860009054906101000a900473ffffffffffffffffffffffffffffffffffffffff16600960009054906101000a900473ffffffffffffffffffffffffffffffffffffffff16848461099b565b7ffe1e4a8e08883dfa3751dc60bb8a10081fc55ed2f9106ddb2fe9a1ce61b878da3384846040516102e793929190610f38565b60405180910390a150610437565b600960009054906101000a900473ffffffffffffffffffffffffffffffffffffffff1673ffffffffffffffffffffffffffffffffffffffff168273ffffffffffffffffffffffffffffffffffffffff1614156104365760006007546002548361035e91906110d5565b61036891906110a4565b9050600554600454111561038b576006548161038491906110d5565b90506103a9565b60055460045410156103a857600654816103a591906110a4565b90505b5b6103f9600960009054906101000a900473ffffffffffffffffffffffffffffffffffffffff16600860009054906101000a900473ffffffffffffffffffffffffffffffffffffffff16848461099b565b7ffe1e4a8e08883dfa3751dc60bb8a10081fc55ed2f9106ddb2fe9a1ce61b878da33848460405161042c93929190610f38565b60405180910390a1505b5b5050565b610443610cba565b73ffffffffffffffffffffffffffffffffffffffff166104616107c3565b73ffffffffffffffffffffffffffffffffffffffff16146104b7576040517f08c379a00000000000000000000000000000000000000000000000000000000081526004016104ae90610ff8565b60405180910390fd5b600081116104fa576040517f08c379a00000000000000000000000000000000000000000000000000000000081526004016104f190610fd8565b60405180910390fd5b8173ffffffffffffffffffffffffffffffffffffffff166323b872dd3330846040518463ffffffff1660e01b815260040161053793929190610f38565b602060405180830381600087803b15801561055157600080fd5b505af1158015610565573d6000803e3d6000fd5b505050506040513d601f19601f820116820180604052508101906105899190610d83565b61059657610595611177565b5b5050565b6105a2610cba565b73ffffffffffffffffffffffffffffffffffffffff166105c06107c3565b73ffffffffffffffffffffffffffffffffffffffff1614610616576040517f08c379a000000000000000000000000000000000000000000000000000000000815260040161060d90610ff8565b60405180910390fd5b600073ffffffffffffffffffffffffffffffffffffffff1660008054906101000a900473ffffffffffffffffffffffffffffffffffffffff1673ffffffffffffffffffffffffffffffffffffffff167f8be0079c531659141344cd1fd0a4f28419497f9722a3daafe3b4186f6b6457e060405160405180910390a360008060006101000a81548173ffffffffffffffffffffffffffffffffffffffff021916908373ffffffffffffffffffffffffffffffffffffffff160217905550565b600960009054906101000a900473ffffffffffffffffffffffffffffffffffffffff1681565b610702610cba565b73ffffffffffffffffffffffffffffffffffffffff166107206107c3565b73ffffffffffffffffffffffffffffffffffffffff1614610776576040517f08c379a000000000000000000000000000000000000000000000000000000000815260040161076d90610ff8565b60405180910390fd5b600081116107b9576040517f08c379a00000000000000000000000000000000000000000000000000000000081526004016107b090611058565b60405180910390fd5b8060078190555050565b60008060009054906101000a900473ffffffffffffffffffffffffffffffffffffffff16905090565b60075481565b6107fa610cba565b73ffffffffffffffffffffffffffffffffffffffff166108186107c3565b73ffffffffffffffffffffffffffffffffffffffff161461086e576040517f08c379a000000000000000000000000000000000000000000000000000000000815260040161086590610ff8565b60405180910390fd5b600073ffffffffffffffffffffffffffffffffffffffff168173ffffffffffffffffffffffffffffffffffffffff1614156108de576040517f08c379a00000000000000000000000000000000000000000000000000000000081526004016108d590610fb8565b60405180910390fd5b8073ffffffffffffffffffffffffffffffffffffffff1660008054906101000a900473ffffffffffffffffffffffffffffffffffffffff1673ffffffffffffffffffffffffffffffffffffffff167f8be0079c531659141344cd1fd0a4f28419497f9722a3daafe3b4186f6b6457e060405160405180910390a3806000806101000a81548173ffffffffffffffffffffffffffffffffffffffff021916908373ffffffffffffffffffffffffffffffffffffffff16021790555050565b600082116109de576040517f08c379a00000000000000000000000000000000000000000000000000000000081526004016109d590610f98565b60405180910390fd5b60008473ffffffffffffffffffffffffffffffffffffffff166370a08231336040518263ffffffff1660e01b8152600401610a199190610f1d565b60206040518083038186803b158015610a3157600080fd5b505afa158015610a45573d6000803e3d6000fd5b505050506040513d601f19601f82011682018060405250810190610a699190610ddd565b9050828111610aad576040517f08c379a0000000000000000000000000000000000000000000000000000000008152600401610aa490611038565b60405180910390fd5b60008473ffffffffffffffffffffffffffffffffffffffff166370a08231306040518263ffffffff1660e01b8152600401610ae89190610f1d565b60206040518083038186803b158015610b0057600080fd5b505afa158015610b14573d6000803e3d6000fd5b505050506040513d601f19601f82011682018060405250810190610b389190610ddd565b9050828111610b7c576040517f08c379a0000000000000000000000000000000000000000000000000000000008152600401610b7390611018565b60405180910390fd5b8573ffffffffffffffffffffffffffffffffffffffff166323b872dd3330876040518463ffffffff1660e01b8152600401610bb993929190610f38565b602060405180830381600087803b158015610bd357600080fd5b505af1158015610be7573d6000803e3d6000fd5b505050506040513d601f19601f82011682018060405250810190610c0b9190610d83565b610c1857610c17611177565b5b8473ffffffffffffffffffffffffffffffffffffffff1663a9059cbb33856040518363ffffffff1660e01b8152600401610c53929190610f6f565b602060405180830381600087803b158015610c6d57600080fd5b505af1158015610c81573d6000803e3d6000fd5b505050506040513d601f19601f82011682018060405250810190610ca59190610d83565b610cb257610cb1611177565b5b505050505050565b600033905090565b600081359050610cd18161139a565b92915050565b600081519050610ce6816113b1565b92915050565b600081359050610cfb816113c8565b92915050565b600081519050610d10816113c8565b92915050565b600060208284031215610d2c57610d2b611204565b5b6000610d3a84828501610cc2565b91505092915050565b60008060408385031215610d5a57610d59611204565b5b6000610d6885828601610cc2565b9250506020610d7985828601610cec565b9150509250929050565b600060208284031215610d9957610d98611204565b5b6000610da784828501610cd7565b91505092915050565b600060208284031215610dc657610dc5611204565b5b6000610dd484828501610cec565b91505092915050565b600060208284031215610df357610df2611204565b5b6000610e0184828501610d01565b91505092915050565b610e138161112f565b82525050565b6000610e26602683611093565b9150610e3182611209565b604082019050919050565b6000610e49602683611093565b9150610e5482611258565b604082019050919050565b6000610e6c602583611093565b9150610e77826112a7565b604082019050919050565b6000610e8f602083611093565b9150610e9a826112f6565b602082019050919050565b6000610eb2601983611093565b9150610ebd8261131f565b602082019050919050565b6000610ed5601583611093565b9150610ee082611348565b602082019050919050565b6000610ef8602083611093565b9150610f0382611371565b602082019050919050565b610f178161116d565b82525050565b6000602082019050610f326000830184610e0a565b92915050565b6000606082019050610f4d6000830186610e0a565b610f5a6020830185610e0a565b610f676040830184610f0e565b949350505050565b6000604082019050610f846000830185610e0a565b610f916020830184610f0e565b9392505050565b60006020820190508181036000830152610fb181610e19565b9050919050565b60006020820190508181036000830152610fd181610e3c565b9050919050565b60006020820190508181036000830152610ff181610e5f565b9050919050565b6000602082019050818103600083015261101181610e82565b9050919050565b6000602082019050818103600083015261103181610ea5565b9050919050565b6000602082019050818103600083015261105181610ec8565b9050919050565b6000602082019050818103600083015261107181610eeb565b9050919050565b600060208201905061108d6000830184610f0e565b92915050565b600082825260208201905092915050565b60006110af8261116d565b91506110ba8361116d565b9250826110ca576110c96111d5565b5b828204905092915050565b60006110e08261116d565b91506110eb8361116d565b9250817fffffffffffffffffffffffffffffffffffffffffffffffffffffffffffffffff0483118215151615611124576111236111a6565b5b828202905092915050565b600061113a8261114d565b9050919050565b60008115159050919050565b600073ffffffffffffffffffffffffffffffffffffffff82169050919050565b6000819050919050565b7f4e487b7100000000000000000000000000000000000000000000000000000000600052600160045260246000fd5b7f4e487b7100000000000000000000000000000000000000000000000000000000600052601160045260246000fd5b7f4e487b7100000000000000000000000000000000000000000000000000000000600052601260045260246000fd5b600080fd5b7f416d6f756e74206f6620746f6b656e206e6565647320746f206265206f76657260008201527f207a65726f210000000000000000000000000000000000000000000000000000602082015250565b7f4f776e61626c653a206e6577206f776e657220697320746865207a65726f206160008201527f6464726573730000000000000000000000000000000000000000000000000000602082015250565b7f4465706f73697420616d6f756e74206e6565647320746f206265206f7665722060008201527f7a65726f21000000000000000000000000000000000000000000000000000000602082015250565b7f4f776e61626c653a2063616c6c6572206973206e6f7420746865206f776e6572600082015250565b7f436f6e74726163742062616c616e636520746f6f206c6f772100000000000000600082015250565b7f557365722062616c616e636520746f6f206c6f77210000000000000000000000600082015250565b7f4e6577207072696365206e6565647320746f206265206f766572207a65726f21600082015250565b6113a38161112f565b81146113ae57600080fd5b50565b6113ba81611141565b81146113c557600080fd5b50565b6113d18161116d565b81146113dc57600080fd5b5056fea2646970667358221220ab3ed6cf5ee1f2edf15042a5f7c0e946e2cf8469b08ee95ec3cd488bed5c09ed64736f6c63430008060033",
  "immutableReferences": {},
  "source": "pragma solidity ^0.8.0;\n\n// compile problem with import \"@openzeppelin/contracts/token/ERC20/ERC20.sol\";\nimport \"../node_modules/openzeppelin-solidity/contracts/access/Ownable.sol\";\nimport \"../node_modules/openzeppelin-solidity/contracts/token/ERC20/ERC20.sol\";\n\ncontract Exchange is Ownable {\n  uint256 private _decimals = 18;\n  uint256 private _amountWei = 10**_decimals;\n  uint256 private _decimalsDiff = 0;\n  uint256 private _decA;\n  uint256 private _decB;\n  uint256 private _rate = 1;\n  uint256 public price;\n  address public addressTknA;\n  address public addressTknB;\n\n  event ExchangeTokenEvent(address _user, address _token, uint256 _amountSell);\n\n  constructor(address tokenAddressA, address tokenAddressB, uint256 priceAB) {\n    addressTknA = tokenAddressA;\n    addressTknB = tokenAddressB;\n    price = priceAB;\n    _decA = (ERC20(addressTknA)).decimals();\n    _decB = (ERC20(addressTknB)).decimals();\n\n    if(_decA>_decB){\n      _decimalsDiff = _decA - _decB;\n    }else if(_decA<_decB){\n      _decimalsDiff = _decB - _decA;\n    }\n    _rate = 10**_decimalsDiff;\n  }\n    \n  \nfunction exchange(address tokenAddress, uint256 amount) public {\n  if (tokenAddress == addressTknA){\n    uint256 _amountBuyTkn = (amount * price) / _amountWei;\n    if(_decA>_decB){\n      _amountBuyTkn /= _rate;\n    }else if(_decA<_decB){\n      _amountBuyTkn *= _rate;\n    }\n    _exchangeHelper(addressTknA, addressTknB, amount, _amountBuyTkn);\n    emit ExchangeTokenEvent(msg.sender, tokenAddress, amount);\n  }else if(tokenAddress == addressTknB){\n    uint256 _amountBuyTkn = (amount * _amountWei) / price;\n    if(_decA>_decB){\n      _amountBuyTkn *= _rate;\n    }else if(_decA<_decB){\n      _amountBuyTkn /= _rate;\n    }\n    _exchangeHelper(addressTknB, addressTknA, amount, _amountBuyTkn);\n    emit ExchangeTokenEvent(msg.sender, tokenAddress, amount);\n  }\n  }\n\n\n  function updatePrice(uint256 newPrice) public onlyOwner {\n    require(newPrice > 0, \"New price needs to be over zero!\");\n    price = newPrice;\n  }\n  \n  function deposit(address tokenAddress, uint256 amount) public onlyOwner {\n    require(amount > 0, \"Deposit amount needs to be over zero!\");\n    assert(ERC20(tokenAddress).transferFrom(msg.sender, address(this), amount));\n  }\n  \n    function _exchangeHelper(address sellTkn, address buyTkn, uint256 amountSellTkn, uint256 amountBuyTkn) private {\n    // sell amount >0\n    require(amountSellTkn > 0, \"Amount of token needs to be over zero!\");\n    // enough sell amount on user balance\n    uint256 balanceSenderToken = ERC20(sellTkn).balanceOf(msg.sender);\n    require(balanceSenderToken > amountSellTkn, \"User balance too low!\");\n    // enough buy amount on contract balance\n    uint256 balanceBuyToken = ERC20(buyTkn).balanceOf(address(this));\n    require(balanceBuyToken > amountBuyTkn, \"Contract balance too low!\");\n        \n    // sell sellTkn\n    assert(ERC20(sellTkn).transferFrom(msg.sender, address(this), amountSellTkn));\n    // buy buyTkn\n    assert(ERC20(buyTkn).transfer(msg.sender, amountBuyTkn));\n  }\n}",
  "sourcePath": "/home/oski/Projects/RumbleFish/contracts/Exchange.sol",
  "compiler": {
    "name": "solc",
    "version": "0.8.6+commit.11564f7e.Emscripten.clang"
  },
  "schemaVersion": "3.4.1",
  "updatedAt": "2021-06-28T22:16:11.650Z",
  "devdoc": {
    "kind": "dev",
    "methods": {
      "owner()": {
        "details": "Returns the address of the current owner."
      },
      "renounceOwnership()": {
        "details": "Leaves the contract without owner. It will not be possible to call `onlyOwner` functions anymore. Can only be called by the current owner. NOTE: Renouncing ownership will leave the contract without an owner, thereby removing any functionality that is only available to the owner."
      },
      "transferOwnership(address)": {
        "details": "Transfers ownership of the contract to a new account (`newOwner`). Can only be called by the current owner."
      }
    },
    "version": 1
  },
  "userdoc": {
    "kind": "user",
    "methods": {},
    "version": 1
  }
}